{
  "contractName": "SupplyChain",
  "abi": [
    {
      "constant": true,
      "inputs": [],
      "name": "Owner",
      "outputs": [
        {
          "name": "",
          "type": "address"
        }
      ],
      "payable": false,
      "stateMutability": "view",
      "type": "function"
    },
    {
      "inputs": [],
      "payable": false,
      "stateMutability": "nonpayable",
      "type": "constructor"
    },
    {
      "anonymous": false,
      "inputs": [
        {
          "indexed": true,
          "name": "EthAddress",
          "type": "address"
        },
        {
          "indexed": false,
          "name": "Name",
          "type": "bytes32"
        }
      ],
      "name": "UserRegister",
      "type": "event"
    },
    {
      "anonymous": false,
      "inputs": [
        {
          "indexed": true,
          "name": "EthAddress",
          "type": "address"
        },
        {
          "indexed": false,
          "name": "Name",
          "type": "bytes32"
        },
        {
          "indexed": false,
          "name": "Role",
          "type": "uint256"
        }
      ],
      "name": "UserRoleRevoked",
      "type": "event"
    },
    {
      "anonymous": false,
      "inputs": [
        {
          "indexed": true,
          "name": "EthAddress",
          "type": "address"
        },
        {
          "indexed": false,
          "name": "Name",
          "type": "bytes32"
        },
        {
          "indexed": false,
          "name": "Role",
          "type": "uint256"
        }
      ],
      "name": "UserRoleRessigne",
      "type": "event"
    },
    {
      "anonymous": false,
      "inputs": [
        {
          "indexed": true,
          "name": "ProductID",
          "type": "address"
        },
        {
          "indexed": true,
          "name": "Supplier",
          "type": "address"
        },
        {
          "indexed": false,
          "name": "Shipper",
          "type": "address"
        },
        {
          "indexed": true,
          "name": "Receiver",
          "type": "address"
        }
      ],
      "name": "RawSupplyInit",
      "type": "event"
    },
    {
      "anonymous": false,
      "inputs": [
        {
          "indexed": true,
          "name": "BatchId",
          "type": "address"
        },
        {
          "indexed": true,
          "name": "Manufacturer",
          "type": "address"
        },
        {
          "indexed": false,
          "name": "shipper",
          "type": "address"
        },
        {
          "indexed": true,
          "name": "Receiver",
          "type": "address"
        }
      ],
      "name": "MadicineNewBatch",
      "type": "event"
    },
    {
      "anonymous": false,
      "inputs": [
        {
          "indexed": false,
          "name": "BatchID",
          "type": "address"
        },
        {
          "indexed": true,
          "name": "Pharma",
          "type": "address"
        },
        {
          "indexed": false,
          "name": "status",
          "type": "uint256"
        }
      ],
      "name": "MadicineStatus",
      "type": "event"
    },
    {
      "constant": false,
      "inputs": [
        {
          "name": "EthAddress",
          "type": "address"
        },
        {
          "name": "Name",
          "type": "bytes32"
        },
        {
          "name": "Location",
          "type": "bytes32"
        },
        {
          "name": "Role",
          "type": "uint256"
        }
      ],
      "name": "registerUser",
      "outputs": [],
      "payable": false,
      "stateMutability": "nonpayable",
      "type": "function"
    },
    {
      "constant": false,
      "inputs": [
        {
          "name": "userAddress",
          "type": "address"
        }
      ],
      "name": "revokeRole",
      "outputs": [],
      "payable": false,
      "stateMutability": "nonpayable",
      "type": "function"
    },
    {
      "constant": false,
      "inputs": [
        {
          "name": "userAddress",
          "type": "address"
        },
        {
          "name": "Role",
          "type": "uint256"
        }
      ],
      "name": "reassigneRole",
      "outputs": [],
      "payable": false,
      "stateMutability": "nonpayable",
      "type": "function"
    },
    {
      "constant": true,
      "inputs": [
        {
          "name": "User",
          "type": "address"
        }
      ],
      "name": "getUserInfo",
      "outputs": [
        {
          "name": "name",
          "type": "bytes32"
        },
        {
          "name": "location",
          "type": "bytes32"
        },
        {
          "name": "ethAddress",
          "type": "address"
        },
        {
          "name": "role",
          "type": "uint8"
        }
      ],
      "payable": false,
      "stateMutability": "view",
      "type": "function"
    },
    {
      "constant": true,
      "inputs": [],
      "name": "getUsersCount",
      "outputs": [
        {
          "name": "count",
          "type": "uint256"
        }
      ],
      "payable": false,
      "stateMutability": "view",
      "type": "function"
    },
    {
      "constant": true,
      "inputs": [
        {
          "name": "index",
          "type": "uint256"
        }
      ],
      "name": "getUserbyIndex",
      "outputs": [
        {
          "name": "name",
          "type": "bytes32"
        },
        {
          "name": "location",
          "type": "bytes32"
        },
        {
          "name": "ethAddress",
          "type": "address"
        },
        {
          "name": "role",
          "type": "uint8"
        }
      ],
      "payable": false,
      "stateMutability": "view",
      "type": "function"
    },
    {
      "constant": false,
      "inputs": [
        {
          "name": "Des",
          "type": "bytes32"
        },
        {
          "name": "FN",
          "type": "bytes32"
        },
        {
          "name": "Loc",
          "type": "bytes32"
        },
        {
          "name": "Quant",
          "type": "uint256"
        },
        {
          "name": "Shpr",
          "type": "address"
        },
        {
          "name": "Rcvr",
          "type": "address"
        }
      ],
      "name": "createRawPackage",
      "outputs": [],
      "payable": false,
      "stateMutability": "nonpayable",
      "type": "function"
    },
    {
      "constant": true,
      "inputs": [],
      "name": "getPackagesCountS",
      "outputs": [
        {
          "name": "count",
          "type": "uint256"
        }
      ],
      "payable": false,
      "stateMutability": "view",
      "type": "function"
    },
    {
      "constant": true,
      "inputs": [
        {
          "name": "index",
          "type": "uint256"
        }
      ],
      "name": "getPackageIdByIndexS",
      "outputs": [
        {
          "name": "packageID",
          "type": "address"
        }
      ],
      "payable": false,
      "stateMutability": "view",
      "type": "function"
    },
    {
      "constant": false,
      "inputs": [
        {
          "name": "pid",
          "type": "address"
        },
        {
          "name": "transportertype",
          "type": "uint256"
        },
        {
          "name": "cid",
          "type": "address"
        }
      ],
      "name": "loadConsingment",
      "outputs": [],
      "payable": false,
      "stateMutability": "nonpayable",
      "type": "function"
    },
    {
      "constant": false,
      "inputs": [
        {
          "name": "pid",
          "type": "address"
        }
      ],
      "name": "rawPackageReceived",
      "outputs": [],
      "payable": false,
      "stateMutability": "nonpayable",
      "type": "function"
    },
    {
      "constant": true,
      "inputs": [],
      "name": "getPackagesCountM",
      "outputs": [
        {
          "name": "count",
          "type": "uint256"
        }
      ],
      "payable": false,
      "stateMutability": "view",
      "type": "function"
    },
    {
      "constant": true,
      "inputs": [
        {
          "name": "index",
          "type": "uint256"
        }
      ],
      "name": "getPackageIDByIndexM",
      "outputs": [
        {
          "name": "BatchID",
          "type": "address"
        }
      ],
      "payable": false,
      "stateMutability": "view",
      "type": "function"
    },
    {
      "constant": false,
      "inputs": [
        {
          "name": "Des",
          "type": "bytes32"
        },
        {
          "name": "RM",
          "type": "bytes32"
        },
        {
          "name": "Quant",
          "type": "uint256"
        },
        {
          "name": "Shpr",
          "type": "address"
        },
        {
          "name": "Rcvr",
          "type": "address"
        },
        {
          "name": "RcvrType",
          "type": "uint256"
        }
      ],
      "name": "manufacturMadicine",
      "outputs": [],
      "payable": false,
      "stateMutability": "nonpayable",
      "type": "function"
    },
    {
      "constant": true,
      "inputs": [],
      "name": "getBatchesCountM",
      "outputs": [
        {
          "name": "count",
          "type": "uint256"
        }
      ],
      "payable": false,
      "stateMutability": "view",
      "type": "function"
    },
    {
      "constant": true,
      "inputs": [
        {
          "name": "index",
          "type": "uint256"
        }
      ],
      "name": "getBatchIdByIndexM",
      "outputs": [
        {
          "name": "packageID",
          "type": "address"
        }
      ],
      "payable": false,
      "stateMutability": "view",
      "type": "function"
    },
    {
      "constant": false,
      "inputs": [
        {
          "name": "batchid",
          "type": "address"
        },
        {
          "name": "cid",
          "type": "address"
        }
      ],
      "name": "madicineReceived",
      "outputs": [],
      "payable": false,
      "stateMutability": "nonpayable",
      "type": "function"
    },
    {
      "constant": false,
      "inputs": [
        {
          "name": "BatchID",
          "type": "address"
        },
        {
          "name": "Shipper",
          "type": "address"
        },
        {
          "name": "Receiver",
          "type": "address"
        }
      ],
      "name": "transferMadicineWtoD",
      "outputs": [],
      "payable": false,
      "stateMutability": "nonpayable",
      "type": "function"
    },
    {
      "constant": true,
      "inputs": [],
      "name": "getBatchesCountWD",
      "outputs": [
        {
          "name": "count",
          "type": "uint256"
        }
      ],
      "payable": false,
      "stateMutability": "view",
      "type": "function"
    },
    {
      "constant": true,
      "inputs": [
        {
          "name": "index",
          "type": "uint256"
        }
      ],
      "name": "getBatchIdByIndexWD",
      "outputs": [
        {
          "name": "packageID",
          "type": "address"
        }
      ],
      "payable": false,
      "stateMutability": "view",
      "type": "function"
    },
    {
      "constant": true,
      "inputs": [
        {
          "name": "BatchID",
          "type": "address"
        }
      ],
      "name": "getSubContractWD",
      "outputs": [
        {
          "name": "SubContractWD",
          "type": "address"
        }
      ],
      "payable": false,
      "stateMutability": "view",
      "type": "function"
    },
    {
      "constant": false,
      "inputs": [
        {
          "name": "BatchID",
          "type": "address"
        },
        {
          "name": "Shipper",
          "type": "address"
        },
        {
          "name": "Receiver",
          "type": "address"
        }
      ],
      "name": "transferMadicineDtoP",
      "outputs": [],
      "payable": false,
      "stateMutability": "nonpayable",
      "type": "function"
    },
    {
      "constant": true,
      "inputs": [],
      "name": "getBatchesCountDP",
      "outputs": [
        {
          "name": "count",
          "type": "uint256"
        }
      ],
      "payable": false,
      "stateMutability": "view",
      "type": "function"
    },
    {
      "constant": true,
      "inputs": [
        {
          "name": "index",
          "type": "uint256"
        }
      ],
      "name": "getBatchIdByIndexDP",
      "outputs": [
        {
          "name": "packageID",
          "type": "address"
        }
      ],
      "payable": false,
      "stateMutability": "view",
      "type": "function"
    },
    {
      "constant": true,
      "inputs": [
        {
          "name": "BatchID",
          "type": "address"
        }
      ],
      "name": "getSubContractDP",
      "outputs": [
        {
          "name": "SubContractDP",
          "type": "address"
        }
      ],
      "payable": false,
      "stateMutability": "view",
      "type": "function"
    },
    {
      "constant": false,
      "inputs": [
        {
          "name": "batchid",
          "type": "address"
        },
        {
          "name": "cid",
          "type": "address"
        }
      ],
      "name": "madicineRecievedAtPharma",
      "outputs": [],
      "payable": false,
      "stateMutability": "nonpayable",
      "type": "function"
    },
    {
      "constant": false,
      "inputs": [
        {
          "name": "BatchID",
          "type": "address"
        },
        {
          "name": "Status",
          "type": "uint256"
        }
      ],
      "name": "updateSaleStatus",
      "outputs": [],
      "payable": false,
      "stateMutability": "nonpayable",
      "type": "function"
    },
    {
      "constant": true,
      "inputs": [
        {
          "name": "BatchID",
          "type": "address"
        }
      ],
      "name": "salesInfo",
      "outputs": [
        {
          "name": "Status",
          "type": "uint256"
        }
      ],
      "payable": false,
      "stateMutability": "view",
      "type": "function"
    },
    {
      "constant": true,
      "inputs": [],
      "name": "getBatchesCountP",
      "outputs": [
        {
          "name": "count",
          "type": "uint256"
        }
      ],
      "payable": false,
      "stateMutability": "view",
      "type": "function"
    },
    {
      "constant": true,
      "inputs": [
        {
          "name": "index",
          "type": "uint256"
        }
      ],
      "name": "getBatchIdByIndexP",
      "outputs": [
        {
          "name": "BatchID",
          "type": "address"
        }
      ],
      "payable": false,
      "stateMutability": "view",
      "type": "function"
    }
  ],
  "bytecode": "0x608060405234801561001057600080fd5b5060008054600160a060020a03191633179055614675806100326000396000f3fe6080604052600436106200018b5760e060020a60003504630bcc75688114620001905780630cd48d8114620001da578063108329f8146200021b5780632246e4d414620002955780632becfd0414620002d45780633475901614620002fe578063373d5c1814620003355780633d66f86d14620003725780635e33cea4146200038a5780636386c1c714620003b857806373f08eb314620003ef57806380e52e3f1462000436578063884b9c52146200046d578063923f645a14620004855780639856f6b314620004ce578063986c913914620005275780639af035a314620005555780639f696b3514620005835780639fb3a903146200059b578063a4a1e26314620005b3578063b4a99a4e14620005cb578063b6c022f514620005e3578063bb8ee1c5146200061a578063bc8c5b1c1462000651578063d40da9671462000688578063e581762e14620006df578063e5bff92a14620006f7578063e95690aa1462000725578063eae3c207146200076e578063f05bcd4e14620007ab578063f9723eb614620007d9575b600080fd5b3480156200019d57600080fd5b50620001be60048036036020811015620001b657600080fd5b503562000822565b60408051600160a060020a039092168252519081900360200190f35b348015620001e757600080fd5b5062000219600480360360408110156200020057600080fd5b50600160a060020a0381358116916020013516620008e0565b005b3480156200022857600080fd5b5062000249600480360360208110156200024157600080fd5b503562000a84565b6040518085815260200184815260200183600160a060020a0316600160a060020a031681526020018260078111156200027e57fe5b60ff16815260200194505050505060405180910390f35b348015620002a257600080fd5b506200021960048036036040811015620002bb57600080fd5b50600160a060020a038135811691602001351662000ac8565b348015620002e157600080fd5b50620002ec62000df0565b60408051918252519081900360200190f35b3480156200030b57600080fd5b50620001be600480360360208110156200032457600080fd5b5035600160a060020a031662000ead565b3480156200034257600080fd5b5062000219600480360360408110156200035b57600080fd5b50600160a060020a03813516906020013562000ecb565b3480156200037f57600080fd5b50620002ec620010ad565b3480156200039757600080fd5b50620001be60048036036020811015620003b057600080fd5b50356200116a565b348015620003c557600080fd5b506200024960048036036020811015620003de57600080fd5b5035600160a060020a03166200122f565b348015620003fc57600080fd5b5062000219600480360360608110156200041557600080fd5b50600160a060020a038135811691602081013591604090910135166200126b565b3480156200044357600080fd5b5062000219600480360360208110156200045c57600080fd5b5035600160a060020a03166200154a565b3480156200047a57600080fd5b50620002ec6200171e565b3480156200049257600080fd5b506200021960048036036080811015620004ab57600080fd5b50600160a060020a038135169060208101359060408101359060600135620017db565b348015620004db57600080fd5b5062000219600480360360c0811015620004f457600080fd5b50803590602081013590604081013590600160a060020a03606082013581169160808101359091169060a0013562001a07565b3480156200053457600080fd5b50620001be600480360360208110156200054d57600080fd5b503562001bdb565b3480156200056257600080fd5b50620001be600480360360208110156200057b57600080fd5b503562001ca0565b3480156200059057600080fd5b50620002ec62001d65565b348015620005a857600080fd5b50620002ec62001e22565b348015620005c057600080fd5b50620002ec62001ebd565b348015620005d857600080fd5b50620001be62001ec3565b348015620005f057600080fd5b50620001be600480360360208110156200060957600080fd5b5035600160a060020a031662001ed2565b3480156200062757600080fd5b50620002ec600480360360208110156200064057600080fd5b5035600160a060020a031662001ef0565b3480156200065e57600080fd5b5062000219600480360360208110156200067757600080fd5b5035600160a060020a031662001f1e565b3480156200069557600080fd5b5062000219600480360360c0811015620006ae57600080fd5b50803590602081013590604081013590606081013590600160a060020a03608082013581169160a00135166200205d565b348015620006ec57600080fd5b50620002ec620021fa565b3480156200070457600080fd5b50620001be600480360360208110156200071d57600080fd5b5035620022dd565b3480156200073257600080fd5b5062000219600480360360608110156200074b57600080fd5b50600160a060020a038135811691602081013582169160409091013516620023c8565b3480156200077b57600080fd5b5062000219600480360360408110156200079457600080fd5b50600160a060020a038135169060200135620025d8565b348015620007b857600080fd5b50620001be60048036036020811015620007d157600080fd5b503562002818565b348015620007e657600080fd5b506200021960048036036060811015620007ff57600080fd5b50600160a060020a038135811691602081013582169160409091013516620028dd565b600060033360009081526001602052604090206002015460a060020a900460ff1660078111156200084f57fe5b14620008a9576040805160e560020a62461bcd02815260206004820152602860248201526000805160206200460a83398151915260448201526000805160206200462a833981519152606482015290519081900360840190fd5b336000908152600460205260409020805483908110620008c557fe5b600091825260209091200154600160a060020a031692915050565b60063360009081526001602052604090206002015460a060020a900460ff1660078111156200090b57fe5b1462000987576040805160e560020a62461bcd02815260206004820152602360248201527f4f6e6c7920506861726d612043616e2063616c6c20746869732066756e63746960448201527f6f6e2e0000000000000000000000000000000000000000000000000000000000606482015290519081900360840190fd5b604080517f32a60e00000000000000000000000000000000000000000000000000000000008152600160a060020a0384811660048301523360248301529151918316916332a60e009160448082019260009290919082900301818387803b158015620009f257600080fd5b505af115801562000a07573d6000803e3d6000fd5b5050336000908152600c60209081526040822080546001808201835591845291909220018054600160a060020a031916600160a060020a038716179055915062000a4e9050565b600160a060020a0383166000908152600d60205260409020805460ff1916600183600481111562000a7b57fe5b02179055505050565b60008060008062000ab960028681548110151562000a9e57fe5b600091825260209091200154600160a060020a03166200122f565b93509350935093509193509193565b60043360009081526001602052604090206002015460a060020a900460ff16600781111562000af357fe5b148062000b28575060053360009081526001602052604090206002015460a060020a900460ff16600781111562000b2657fe5b145b151562000ba5576040805160e560020a62461bcd02815260206004820152603660248201527f4f6e6c792057686f6c6573616c657220616e642044697374726962757465722060448201527f63616e2063616c6c20746869732066756e6374696f6e00000000000000000000606482015290519081900360840190fd5b604080517f52b999680000000000000000000000000000000000000000000000000000000081523360048201529051600091600160a060020a038516916352b999689160248082019260209290919082900301818787803b15801562000c0a57600080fd5b505af115801562000c1f573d6000803e3d6000fd5b505050506040513d602081101562000c3657600080fd5b50519050600181141562000c8257336000908152600660209081526040822080546001810182559083529120018054600160a060020a031916600160a060020a03851617905562000deb565b806002141562000deb5733600090815260066020908152604080832080546001810182559084529183209091018054600160a060020a031916600160a060020a03871690811790915581517f01a9a23e000000000000000000000000000000000000000000000000000000008152915190916301a9a23e916004808301926060929190829003018186803b15801562000d1a57600080fd5b505afa15801562000d2f573d6000803e3d6000fd5b505050506040513d601f19601f82011682018060405250606081101562000d5557600080fd5b5051600160a060020a03161462000deb57604080517ff4c07229000000000000000000000000000000000000000000000000000000008152600160a060020a03858116600483015233602483015291519184169163f4c072299160448082019260009290919082900301818387803b15801562000dd157600080fd5b505af115801562000de6573d6000803e3d6000fd5b505050505b505050565b600060013360009081526001602052604090206002015460a060020a900460ff16600781111562000e1d57fe5b1462000e99576040805160e560020a62461bcd02815260206004820152602560248201527f4f6e6c7920537570706c6965722043616e2063616c6c20746869732066756e6360448201527f74696f6e20000000000000000000000000000000000000000000000000000000606482015290519081900360840190fd5b503360009081526003602052604090205490565b600160a060020a039081166000908152600860205260409020541690565b600054600160a060020a0316331462000f54576040805160e560020a62461bcd02815260206004820152602260248201527f4f6e6c79206f776e65722063616e2063616c6c20746869732066756e6374696f60448201527f6e2e000000000000000000000000000000000000000000000000000000000000606482015290519081900360840190fd5b6000600160a060020a03831660009081526001602052604090206002015460a060020a900460ff16600781111562000f8857fe5b141562000fdf576040805160e560020a62461bcd02815260206004820152601360248201527f55736572206e6f74207265676973746572656400000000000000000000000000604482015290519081900360640190fd5b80600781111562000fec57fe5b600160a060020a0383166000908152600160205260409020600201805474ff0000000000000000000000000000000000000000191660a060020a8360078111156200103357fe5b0217905550600160a060020a038216600081815260016020526040902080546002909101547f4c8b3f61ed94356876db0fec52d6a7c6aeaf772c4e0ca8f6da74331cc0f687cc919060a060020a900460ff1660078111156200109157fe5b6040805192835260208301919091528051918290030190a25050565b600060033360009081526001602052604090206002015460a060020a900460ff166007811115620010da57fe5b1462001156576040805160e560020a62461bcd02815260206004820152602960248201527f4f6e6c79204d616e7566616374757265722043616e2063616c6c20746869732060448201527f66756e6374696f6e2e0000000000000000000000000000000000000000000000606482015290519081900360840190fd5b503360009081526005602052604090205490565b600060013360009081526001602052604090206002015460a060020a900460ff1660078111156200119757fe5b1462001213576040805160e560020a62461bcd02815260206004820152602560248201527f4f6e6c7920537570706c6965722043616e2063616c6c20746869732066756e6360448201527f74696f6e20000000000000000000000000000000000000000000000000000000606482015290519081900360840190fd5b336000908152600360205260409020805483908110620008c557fe5b600160a060020a0390811660009081526001602081905260409091208054918101546002909101549193909282169160a060020a900460ff1690565b60023360009081526001602052604090206002015460a060020a900460ff1660078111156200129657fe5b1462001312576040805160e560020a62461bcd02815260206004820152602760248201527f4f6e6c79205472616e73706f727465722063616e2063616c6c2074686973206660448201527f756e6374696f6e00000000000000000000000000000000000000000000000000606482015290519081900360840190fd5b600082116200136b576040805160e560020a62461bcd02815260206004820152601f60248201527f5472616e73706f727465722054797065206d75737420626520646566696e6500604482015290519081900360640190fd5b8160011415620013f557604080517f638e9a3d0000000000000000000000000000000000000000000000000000000081523360048201529051600160a060020a0385169163638e9a3d91602480830192600092919082900301818387803b158015620013d657600080fd5b505af1158015620013eb573d6000803e3d6000fd5b5050505062000deb565b81600214156200146057604080517f638e9a3d0000000000000000000000000000000000000000000000000000000081523360048201529051600160a060020a0385169163638e9a3d91602480830192600092919082900301818387803b158015620013d657600080fd5b8160031415620014d557604080517f443c28d8000000000000000000000000000000000000000000000000000000008152600160a060020a03858116600483015233602483015291519183169163443c28d89160448082019260009290919082900301818387803b158015620013d657600080fd5b816004141562000deb57604080517fd39ff0e7000000000000000000000000000000000000000000000000000000008152600160a060020a03858116600483015233602483015291519183169163d39ff0e79160448082019260009290919082900301818387803b15801562000dd157600080fd5b600054600160a060020a03163314620015d3576040805160e560020a62461bcd02815260206004820152602260248201527f4f6e6c79206f776e65722063616e2063616c6c20746869732066756e6374696f60448201527f6e2e000000000000000000000000000000000000000000000000000000000000606482015290519081900360840190fd5b6000600160a060020a03821660009081526001602052604090206002015460a060020a900460ff1660078111156200160757fe5b14156200165e576040805160e560020a62461bcd02815260206004820152601360248201527f55736572206e6f74207265676973746572656400000000000000000000000000604482015290519081900360640190fd5b600160a060020a038116600081815260016020526040902080546002909101547fb5f04dfc1ccfefb366c4dc7a23670362462e0a415afb89d8cba1fb657e264c96919060a060020a900460ff166007811115620016b757fe5b6040805192835260208301919091528051918290030190a2600160a060020a03166000908152600160205260409020600201805474ff0000000000000000000000000000000000000000191674070000000000000000000000000000000000000000179055565b600060053360009081526001602052604090206002015460a060020a900460ff1660078111156200174b57fe5b14620017c7576040805160e560020a62461bcd02815260206004820152602860248201527f4f6e6c792044697374726962757465722043616e2063616c6c2074686973206660448201527f756e6374696f6e2e000000000000000000000000000000000000000000000000606482015290519081900360840190fd5b50336000908152600a602052604090205490565b600054600160a060020a0316331462001864576040805160e560020a62461bcd02815260206004820152602260248201527f4f6e6c79206f776e65722063616e2063616c6c20746869732066756e6374696f60448201527f6e2e000000000000000000000000000000000000000000000000000000000000606482015290519081900360840190fd5b6000600160a060020a03851660009081526001602052604090206002015460a060020a900460ff1660078111156200189857fe5b14620018ee576040805160e560020a62461bcd02815260206004820152601760248201527f5573657220416c72656164792072656769737465726564000000000000000000604482015290519081900360640190fd5b600160a060020a03841660008181526001602081905260409091208581559081018490556002018054600160a060020a03191690911790558060078111156200193357fe5b600160a060020a0385166000908152600160205260409020600201805474ff0000000000000000000000000000000000000000191660a060020a8360078111156200197a57fe5b0217905550600280546001810182556000919091527f405787fa12a823e0f2b7631cc41b3ba8828b3321ca811111fa75cd3aa3bb5ace018054600160a060020a038616600160a060020a031990911681179091556040805185815290517f33a7170f028b1e4f5ba321064a00ed820856a920c7f9c6636fbcf385427b1b0f9181900360200190a250505050565b60033360009081526001602052604090206002015460a060020a900460ff16600781111562001a3257fe5b1462001a8c576040805160e560020a62461bcd02815260206004820152602860248201526000805160206200460a83398151915260448201526000805160206200462a833981519152606482015290519081900360840190fd5b80151562001ae4576040805160e560020a62461bcd02815260206004820152601c60248201527f52656365697665722054797065206d75737420626520646566696e6500000000604482015290519081900360640190fd5b60003387878787878762001af762002af0565b600160a060020a03978816815260208101969096526040808701959095526060860193909352908516608085015290931660a083015260c082019290925290519081900360e001906000f08015801562001b55573d6000803e3d6000fd5b503360008181526005602090815260408083208054600181018255908452928290209092018054600160a060020a031916600160a060020a0386811691821790925583518a8316815293519596509088169490927f3279bc96fc4eda86f9fb5456b29ecd9eea4e798e299023b438f7025e6760d5f292908290030190a450505050505050565b600060033360009081526001602052604090206002015460a060020a900460ff16600781111562001c0857fe5b1462001c84576040805160e560020a62461bcd02815260206004820152602960248201527f4f6e6c79204d616e7566616374757265722043616e2063616c6c20746869732060448201527f66756e6374696f6e2e0000000000000000000000000000000000000000000000606482015290519081900360840190fd5b336000908152600560205260409020805483908110620008c557fe5b600060043360009081526001602052604090206002015460a060020a900460ff16600781111562001ccd57fe5b1462001d49576040805160e560020a62461bcd02815260206004820152602760248201527f4f6e6c792057686f6c6573616c65722043616e2063616c6c207468697320667560448201527f6e6374696f6e2e00000000000000000000000000000000000000000000000000606482015290519081900360840190fd5b336000908152600760205260409020805483908110620008c557fe5b600060043360009081526001602052604090206002015460a060020a900460ff16600781111562001d9257fe5b1462001e0e576040805160e560020a62461bcd02815260206004820152602760248201527f4f6e6c792057686f6c6573616c65722043616e2063616c6c207468697320667560448201527f6e6374696f6e2e00000000000000000000000000000000000000000000000000606482015290519081900360840190fd5b503360009081526007602052604090205490565b600060033360009081526001602052604090206002015460a060020a900460ff16600781111562001e4f57fe5b1462001ea9576040805160e560020a62461bcd02815260206004820152602860248201526000805160206200460a83398151915260448201526000805160206200462a833981519152606482015290519081900360840190fd5b503360009081526004602052604090205490565b60025490565b600054600160a060020a031681565b600160a060020a039081166000908152600b60205260409020541690565b600160a060020a0381166000908152600d602052604081205460ff16600481111562001f1857fe5b92915050565b60033360009081526001602052604090206002015460a060020a900460ff16600781111562001f4957fe5b1462001fa3576040805160e560020a62461bcd02815260206004820152602860248201526000805160206200460a83398151915260448201526000805160206200462a833981519152606482015290519081900360840190fd5b604080517f52b999680000000000000000000000000000000000000000000000000000000081523360048201529051600160a060020a038316916352b9996891602480830192600092919082900301818387803b1580156200200457600080fd5b505af115801562002019573d6000803e3d6000fd5b5050336000908152600460209081526040822080546001810182559083529120018054600160a060020a031916600160a060020a0394909416939093179092555050565b60013360009081526001602052604090206002015460a060020a900460ff1660078111156200208857fe5b1462002104576040805160e560020a62461bcd02815260206004820152602560248201527f4f6e6c7920537570706c6965722043616e2063616c6c20746869732066756e6360448201527f74696f6e20000000000000000000000000000000000000000000000000000000606482015290519081900360840190fd5b6000338787878787876200211762002b01565b600160a060020a039788168152602081019690965260408087019590955260608601939093526080850191909152841660a084015290921660c082015290519081900360e001906000f08015801562002174573d6000803e3d6000fd5b503360008181526003602090815260408083208054600181018255908452928290209092018054600160a060020a031916600160a060020a038681169182179092558351898316815293519596509087169490927f9dbe7d9fdd28b9b1c2ffe79a40f7beff124537ed0d7a47555d009e0271fc613392908290030190a450505050505050565b600060063360009081526001602052604090206002015460a060020a900460ff1660078111156200222757fe5b14620022c9576040805160e560020a62461bcd02815260206004820152604260248201527f4f6e6c792057686f6c6573616c6572206f722063757272656e74206f776e657260448201527f206f66207061636b6167652063616e2063616c6c20746869732066756e63746960648201527f6f6e000000000000000000000000000000000000000000000000000000000000608482015290519081900360a40190fd5b50336000908152600c602052604090205490565b600060063360009081526001602052604090206002015460a060020a900460ff1660078111156200230a57fe5b14620023ac576040805160e560020a62461bcd02815260206004820152604260248201527f4f6e6c792057686f6c6573616c6572206f722063757272656e74206f776e657260448201527f206f66207061636b6167652063616e2063616c6c20746869732066756e63746960648201527f6f6e000000000000000000000000000000000000000000000000000000000000608482015290519081900360a40190fd5b336000908152600c60205260409020805483908110620008c557fe5b60043360009081526001602052604090206002015460a060020a900460ff166007811115620023f357fe5b14801562002482575082600160a060020a03166301a9a23e6040518163ffffffff1660e060020a02815260040160606040518083038186803b1580156200243957600080fd5b505afa1580156200244e573d6000803e3d6000fd5b505050506040513d601f19601f8201168201806040525060608110156200247457600080fd5b5051600160a060020a031633145b151562002525576040805160e560020a62461bcd02815260206004820152604260248201527f4f6e6c792057686f6c6573616c6572206f722063757272656e74206f776e657260448201527f206f66207061636b6167652063616e2063616c6c20746869732066756e63746960648201527f6f6e000000000000000000000000000000000000000000000000000000000000608482015290519081900360a40190fd5b6000833384846200253562002b12565b600160a060020a039485168152928416602084015290831660408084019190915292166060820152905190819003608001906000f0801580156200257d573d6000803e3d6000fd5b503360009081526007602090815260408083208054600181018255908452828420018054600160a060020a03958616600160a060020a0319918216811790925598909416835260089091529020805490951617909355505050565b60063360009081526001602052604090206002015460a060020a900460ff1660078111156200260357fe5b14801562002695575081600160a060020a03166301a9a23e6040518163ffffffff1660e060020a02815260040160606040518083038186803b1580156200264957600080fd5b505afa1580156200265e573d6000803e3d6000fd5b505050506040513d601f19601f8201168201806040525060608110156200268457600080fd5b5060400151600160a060020a031633145b151562002712576040805160e560020a62461bcd02815260206004820152603e60248201527f4f6e6c7920506861726d61206f722063757272656e74206f776e6572206f662060448201527f7061636b6167652063616e2063616c6c20746869732066756e6374696f6e0000606482015290519081900360840190fd5b6001600160a060020a0383166000908152600d602052604090205460ff1660048111156200273c57fe5b1462002792576040805160e560020a62461bcd02815260206004820152601a60248201527f6d61646963696e65204d75737420626520617420506861726d61000000000000604482015290519081900360640190fd5b8060048111156200279f57fe5b600160a060020a0383166000908152600d60205260409020805460ff19166001836004811115620027cc57fe5b021790555060408051600160a060020a038416815260208101839052815133927f7e0150eb126a0bad6138f448f48f826cabdf937aac9ffdcefbba62cae222332e928290030190a25050565b600060053360009081526001602052604090206002015460a060020a900460ff1660078111156200284557fe5b14620028c1576040805160e560020a62461bcd02815260206004820152602860248201527f4f6e6c792044697374726962757465722043616e2063616c6c2074686973206660448201527f756e6374696f6e2e000000000000000000000000000000000000000000000000606482015290519081900360840190fd5b336000908152600a60205260409020805483908110620008c557fe5b60053360009081526001602052604090206002015460a060020a900460ff1660078111156200290857fe5b1480156200299a575082600160a060020a03166301a9a23e6040518163ffffffff1660e060020a02815260040160606040518083038186803b1580156200294e57600080fd5b505afa15801562002963573d6000803e3d6000fd5b505050506040513d601f19601f8201168201806040525060608110156200298957600080fd5b5060200151600160a060020a031633145b151562002a3d576040805160e560020a62461bcd02815260206004820152604360248201527f4f6e6c79204469737472696275746572206f722063757272656e74206f776e6560448201527f72206f66207061636b6167652063616e2063616c6c20746869732066756e637460648201527f696f6e0000000000000000000000000000000000000000000000000000000000608482015290519081900360a40190fd5b60008333848462002a4d62002b23565b600160a060020a039485168152928416602084015290831660408084019190915292166060820152905190819003608001906000f08015801562002a95573d6000803e3d6000fd5b50336000908152600a602090815260408083208054600181018255908452828420018054600160a060020a03958616600160a060020a03199182168117909255989094168352600b9091529020805490951617909355505050565b604051610b868062002b3583390190565b6040516105d980620036bb83390190565b6040516104bb8062003c9483390190565b6040516104bb806200414f8339019056fe608060405234801561001057600080fd5b5060405160e080610b86833981018060405260e081101561003057600080fd5b508051602082015160408301516060840151608085015160a086015160c09096015160008054600160a060020a0319908116600160a060020a03808a1691821790935560058054831690911790556001878155600287905560038690556004805490921692851692909217905595969495939492939192918114156100cf5760068054600160a060020a031916600160a060020a0384161790556100f4565b80600214156100f45760078054600160a060020a031916600160a060020a0384161790555b50505050505050610a7c8061010a6000396000f3fe608060405260043610610092577c0100000000000000000000000000000000000000000000000000000000600035046301a9a23e81146100975780631d2aafc8146100e45780634175699d1461013557806352b999681461016a578063638e9a3d146101af578063952565cf146101e2578063a19ffd6014610215578063bd78683514610250578063d2f3fcc71461028b575b600080fd5b3480156100a357600080fd5b506100ac6102a0565b6040518082606080838360005b838110156100d15781810151838201526020016100b9565b5050505090500191505060405180910390f35b3480156100f057600080fd5b506100f96102db565b60408051600160a060020a0396871681526020810195909552848101939093526060840191909152909216608082015290519081900360a00190f35b34801561014157600080fd5b506101686004803603602081101561015857600080fd5b5035600160a060020a03166102fe565b005b34801561017657600080fd5b5061019d6004803603602081101561018d57600080fd5b5035600160a060020a031661038d565b60408051918252519081900360200190f35b3480156101bb57600080fd5b50610168600480360360208110156101d257600080fd5b5035600160a060020a03166105fa565b3480156101ee57600080fd5b506101686004803603602081101561020557600080fd5b5035600160a060020a03166107c7565b34801561022157600080fd5b506101686004803603604081101561023857600080fd5b50600160a060020a0381358116916020013516610859565b34801561025c57600080fd5b506101686004803603604081101561027357600080fd5b50600160a060020a0381358116916020013516610937565b34801561029757600080fd5b5061019d6109f1565b6102a8610a11565b5060408051606081018252600654600160a060020a03908116825260075481166020830152600854169181019190915290565b600554600154600254600354600454600160a060020a0394851694169091929394565b600854600160a060020a03828116911614610363576040805160e560020a62461bcd02815260206004820152601e60248201527f5468697320506861726d61206973206e6f74204173736f6369617465642e0000604482015290519081900360640190fd5b60065b6008805460a060020a60ff02191660a060020a83600681111561038557fe5b021790555050565b600654600090600160a060020a03838116911614806103b95750600754600160a060020a038381169116145b1515610435576040805160e560020a62461bcd02815260206004820152603f60248201527f4f6e6c79204173736f63696174652057686f6c6573616c6572206f722044697360448201527f74727562757465722063616e2063616c6c20746869732066756e6374696f6e00606482015290519081900360840190fd5b60085460019060a060020a900460ff16600681111561045057fe5b10156104a6576040805160e560020a62461bcd02815260206004820152601960248201527f50726f64756374206e6f74207069636b65642075702079657400000000000000604482015290519081900360640190fd5b600654600160a060020a0383811691161480156104da5750600160085460a060020a900460ff1660068111156104d857fe5b145b1561054d576008805460a060020a60ff021916740300000000000000000000000000000000000000001790556006546004546040805160028152600360208201528151600160a060020a0394851694909316923092600080516020610a31833981519152928290030190a45060016105f5565b600754600160a060020a0383811691161480156105815750600260085460a060020a900460ff16600681111561057f57fe5b145b156105f5576008805460a060020a60ff0219167404000000000000000000000000000000000000000017905560075460048054604080516003815260208101939093528051600160a060020a0394851694909216923092600080516020610a31833981519152929181900390910190a45060025b919050565b600454600160a060020a03828116911614610685576040805160e560020a62461bcd02815260206004820152602d60248201527f4f6e6c79204173736f636961746520536869707065722063616e2063616c6c2060448201527f746869732066756e6374696f6e00000000000000000000000000000000000000606482015290519081900360840190fd5b600060085460a060020a900460ff16600681111561069f57fe5b146106f4576040805160e560020a62461bcd02815260206004820152601c60248201527f5061636b616765206d75737420626520617420537570706c6965722e00000000604482015290519081900360640190fd5b600654600160a060020a03161561075e576008805460a060020a60ff02191660a060020a17905560065460045460408051600180825260208201528151600160a060020a0394851694909316923092600080516020610a31833981519152928290030190a46107c4565b6008805460a060020a60ff0219167402000000000000000000000000000000000000000017905560075460045460408051600180825260208201528151600160a060020a0394851694909316923092600080516020610a31833981519152928290030190a45b50565b600754600160a060020a03828116911614610852576040805160e560020a62461bcd02815260206004820152602360248201527f54686973204469737472696275746572206973206e6f74204173736f6369617460448201527f65642e0000000000000000000000000000000000000000000000000000000000606482015290519081900360840190fd5b6004610366565b600754600160a060020a038281169116146108e4576040805160e560020a62461bcd02815260206004820152602360248201527f74686973204469737472696275746572206973206e6f74204173736f6369617460448201527f65642e0000000000000000000000000000000000000000000000000000000000606482015290519081900360840190fd5b6008805473ffffffffffffffffffffffffffffffffffffffff1916600160a060020a03841617905560055b6008805460a060020a60ff02191660a060020a83600681111561092e57fe5b02179055505050565b600654600160a060020a038281169116146109c2576040805160e560020a62461bcd02815260206004820152602260248201527f746869732057686f6c6573616c6572206973206e6f74204173736f636961746560448201527f642e000000000000000000000000000000000000000000000000000000000000606482015290519081900360840190fd5b6007805473ffffffffffffffffffffffffffffffffffffffff1916600160a060020a038416179055600261090f565b60085460009060a060020a900460ff166006811115610a0c57fe5b905090565b606060405190810160405280600390602082028038833950919291505056fe7e89c4b1a4e2b51aae84eb1f90e8a34cb792ece5ac5cb63db4830c891220b28da165627a7a723058207fae98673450367bf4e5626ef47d20e557e4e1ab4a0974ae0fd7c1d533fcf2850029608060405234801561001057600080fd5b5060405160e0806105d9833981018060405260e081101561003057600080fd5b508051602082015160408301516060840151608085015160a086015160c09096015160008054600160a060020a0319908116600160a060020a0398891690811783556001805430908416179055600297909755600395909555600493909355600591909155600680548416968616969096179095556007805483169490951693909317909355600880549093161760a060020a60ff0219169091556104fe9081906100db90396000f3fe60806040526004361061005b577c010000000000000000000000000000000000000000000000000000000060003504633b205a7d811461006057806352b9996814610087578063638e9a3d146100bc578063d02eee23146100ef575b600080fd5b34801561006c57600080fd5b5061007561014b565b60408051918252519081900360200190f35b34801561009357600080fd5b506100ba600480360360208110156100aa57600080fd5b5035600160a060020a031661017c565b005b3480156100c857600080fd5b506100ba600480360360208110156100df57600080fd5b5035600160a060020a0316610310565b3480156100fb57600080fd5b506101046104a3565b604080519788526020880196909652868601949094526060860192909252600160a060020a03908116608086015290811660a08501521660c0830152519081900360e00190f35b60085460009074010000000000000000000000000000000000000000900460ff16600281111561017757fe5b905090565b600754600160a060020a03828116911614610207576040805160e560020a62461bcd02815260206004820152603260248201527f4f6e6c79204173736f6369617465204d616e7566616374757265722063616e2060448201527f63616c6c20746869732066756e6374696f6e0000000000000000000000000000606482015290519081900360840190fd5b600160085474010000000000000000000000000000000000000000900460ff16600281111561023257fe5b14610287576040805160e560020a62461bcd02815260206004820152601960248201527f50726f64756374206e6f74207069636b65642075702079657400000000000000604482015290519081900360640190fd5b6008805474ff00000000000000000000000000000000000000001916740200000000000000000000000000000000000000001790556007546006546040805160018152600260208201528151600160a060020a03948516949093169230927f7e89c4b1a4e2b51aae84eb1f90e8a34cb792ece5ac5cb63db4830c891220b28d928290030190a450565b600654600160a060020a0382811691161461039b576040805160e560020a62461bcd02815260206004820152602d60248201527f4f6e6c79204173736f636961746520536869707065722063616e2063616c6c2060448201527f746869732066756e6374696f6e00000000000000000000000000000000000000606482015290519081900360840190fd5b600060085474010000000000000000000000000000000000000000900460ff1660028111156103c657fe5b1461041b576040805160e560020a62461bcd02815260206004820152601c60248201527f5061636b616765206d75737420626520617420537570706c6965722e00000000604482015290519081900360640190fd5b6008805474ff000000000000000000000000000000000000000019167401000000000000000000000000000000000000000017905560075460065460408051600180825260208201528151600160a060020a03948516949093169230927f7e89c4b1a4e2b51aae84eb1f90e8a34cb792ece5ac5cb63db4830c891220b28d928290030190a450565b600254600354600454600554600654600754600854600160a060020a039283169291821691169091929394959656fea165627a7a72305820fc23323669dd73f82db632e6ec69b311b1ebc21a090e3c201d2f37e67d5fcd5f0029608060405234801561001057600080fd5b506040516080806104bb8339810180604052608081101561003057600080fd5b5080516020820151604083015160609093015160008054600160a060020a0319908116600160a060020a03948516908117835560018054831696861696909617909555600280548216909517909455600380548516958416959095179094556004805490931691161760a060020a60ff02191690556104069081906100b590396000f3fe608060405260043610610050577c01000000000000000000000000000000000000000000000000000000006000350463443c28d88114610055578063d2f3fcc714610092578063f4c07229146100b9575b600080fd5b34801561006157600080fd5b506100906004803603604081101561007857600080fd5b50600160a060020a03813581169160200135166100f4565b005b34801561009e57600080fd5b506100a7610257565b60408051918252519081900360200190f35b3480156100c557600080fd5b50610090600480360360408110156100dc57600080fd5b50600160a060020a0381358116916020013516610288565b600354600160a060020a0382811691161461019657604080517f08c379a000000000000000000000000000000000000000000000000000000000815260206004820152602f60248201527f4f6e6c79204173736f63696174656420736869707065722063616e2063616c6c60448201527f20746869732066756e6374696f6e2e0000000000000000000000000000000000606482015290519081900360840190fd5b6004805474ff000000000000000000000000000000000000000019167401000000000000000000000000000000000000000017808255600254604080517fbd786835000000000000000000000000000000000000000000000000000000008152600160a060020a03938416948101949094529082166024840152519084169163bd78683591604480830192600092919082900301818387803b15801561023b57600080fd5b505af115801561024f573d6000803e3d6000fd5b505050505050565b60045460009074010000000000000000000000000000000000000000900460ff16600281111561028357fe5b905090565b600454600160a060020a0382811691161461032a57604080517f08c379a000000000000000000000000000000000000000000000000000000000815260206004820152603060248201527f4f6e6c79204173736f6369617465642072656365697665722063616e2063616c60448201527f6c20746869732066756e6374696f6e2e00000000000000000000000000000000606482015290519081900360840190fd5b600480546002919074ff000000000000000000000000000000000000000019167401000000000000000000000000000000000000000083021790555081600160a060020a031663952565cf826040518263ffffffff167c01000000000000000000000000000000000000000000000000000000000281526004018082600160a060020a0316600160a060020a03168152602001915050600060405180830381600087803b15801561023b57600080fdfea165627a7a723058200ee72eb855f2fd64fcff2715837733431e38bf79c73eca14fad1b10c1a960bbf0029608060405234801561001057600080fd5b506040516080806104bb8339810180604052608081101561003057600080fd5b5080516020820151604083015160609093015160008054600160a060020a0319908116600160a060020a03948516908117835560018054831696861696909617909555600280548216909517909455600380548516958416959095179094556004805490931691161760a060020a60ff02191690556104069081906100b590396000f3fe608060405260043610610050577c0100000000000000000000000000000000000000000000000000000000600035046332a60e008114610055578063d2f3fcc714610092578063d39ff0e7146100b9575b600080fd5b34801561006157600080fd5b506100906004803603604081101561007857600080fd5b50600160a060020a03813581169160200135166100f4565b005b34801561009e57600080fd5b506100a7610262565b60408051918252519081900360200190f35b3480156100c557600080fd5b50610090600480360360408110156100dc57600080fd5b50600160a060020a0381358116916020013516610293565b600454600160a060020a0382811691161461019657604080517f08c379a000000000000000000000000000000000000000000000000000000000815260206004820152603060248201527f4f6e6c79204173736f6369617465642072656365697665722063616e2063616c60448201527f6c20746869732066756e6374696f6e2e00000000000000000000000000000000606482015290519081900360840190fd5b600480546002919074ff000000000000000000000000000000000000000019167401000000000000000000000000000000000000000083021790555081600160a060020a0316634175699d826040518263ffffffff167c01000000000000000000000000000000000000000000000000000000000281526004018082600160a060020a0316600160a060020a03168152602001915050600060405180830381600087803b15801561024657600080fd5b505af115801561025a573d6000803e3d6000fd5b505050505050565b60045460009074010000000000000000000000000000000000000000900460ff16600281111561028e57fe5b905090565b600354600160a060020a0382811691161461033557604080517f08c379a000000000000000000000000000000000000000000000000000000000815260206004820152602f60248201527f4f6e6c79204173736f63696174656420736869707065722063616e2063616c6c60448201527f20746869732066756e6374696f6e2e0000000000000000000000000000000000606482015290519081900360840190fd5b6004805474ff000000000000000000000000000000000000000019167401000000000000000000000000000000000000000017808255600254604080517fa19ffd60000000000000000000000000000000000000000000000000000000008152600160a060020a03938416948101949094529082166024840152519084169163a19ffd6091604480830192600092919082900301818387803b15801561024657600080fdfea165627a7a72305820887e75dce139ea1aceb6399d3d04418f1ca324ab5ecc8c9f53d3ce4e4521546e00294f6e6c79206d616e7566616374757265722063616e2063616c6c20746869732066756e6374696f6e000000000000000000000000000000000000000000000000a165627a7a72305820e8b8f0ab00d87322e874cf9c63d6636986237c2f6452e31b1dc169f75fd9a1a60029",
  "source": "pragma solidity >=0.4.25 <0.6.0;\r\n\r\nimport './RawMatrials.sol';\r\nimport './Madicine.sol';\r\nimport './MadicineW_D.sol';\r\nimport './MadicineD_P.sol';\r\n\r\n/// @title Blockchain : Pharmaceutical SupplyChain\r\n/// @author Robby Malunga\r\ncontract SupplyChain {\r\n\r\n    /// @notice\r\n    address public Owner;\r\n\r\n    /// @notice\r\n    /// @dev Initiate SupplyChain Contract\r\n    constructor () public {\r\n        Owner = msg.sender;\r\n    }\r\n/********************************************** Owner Section *********************************************/\r\n    /// @dev Validate Owner\r\n    modifier onlyOwner() {\r\n        require(\r\n            msg.sender == Owner,\r\n            \"Only owner can call this function.\"\r\n        );\r\n        _;\r\n    }\r\n\r\n    enum roles {\r\n        norole,\r\n        supplier,\r\n        transporter,\r\n        manufacturer,\r\n        wholesaler,\r\n        distributer,\r\n        pharma,\r\n        revoke\r\n    }\r\n\r\n    event UserRegister(address indexed EthAddress, bytes32 Name);\r\n    event UserRoleRevoked(address indexed EthAddress, bytes32 Name, uint Role);\r\n    event UserRoleRessigne(address indexed EthAddress, bytes32 Name, uint Role);\r\n\r\n    /// @notice\r\n    /// @dev Register New user by Owner\r\n    /// @param EthAddress Ethereum Network Address of User\r\n    /// @param Name User name\r\n    /// @param Location User Location\r\n    /// @param Role User Role\r\n    function registerUser(\r\n        address EthAddress,\r\n        bytes32 Name,\r\n        bytes32 Location,\r\n        uint Role\r\n        ) public\r\n        onlyOwner\r\n        {\r\n        require(UsersDetails[EthAddress].role == roles.norole, \"User Already registered\");\r\n        UsersDetails[EthAddress].name = Name;\r\n        UsersDetails[EthAddress].location = Location;\r\n        UsersDetails[EthAddress].ethAddress = EthAddress;\r\n        UsersDetails[EthAddress].role = roles(Role);\r\n        users.push(EthAddress);\r\n        emit UserRegister(EthAddress, Name);\r\n    }\r\n    /// @notice\r\n    /// @dev Revoke users role\r\n    /// @param userAddress User Ethereum Network Address\r\n    function revokeRole(address userAddress) public onlyOwner {\r\n        require(UsersDetails[userAddress].role != roles.norole, \"User not registered\");\r\n        emit UserRoleRevoked(userAddress, UsersDetails[userAddress].name,uint(UsersDetails[userAddress].role));\r\n        UsersDetails[userAddress].role = roles(7);\r\n    }\r\n    /// @notice\r\n    /// @dev Reassigne new role to User\r\n    /// @param userAddress User Ethereum Network Address\r\n    /// @param Role Role to assigne\r\n    function reassigneRole(address userAddress, uint Role) public onlyOwner {\r\n        require(UsersDetails[userAddress].role != roles.norole, \"User not registered\");\r\n        UsersDetails[userAddress].role = roles(Role);\r\n        emit UserRoleRessigne(userAddress, UsersDetails[userAddress].name,uint(UsersDetails[userAddress].role));\r\n    }\r\n\r\n/********************************************** User Section **********************************************/\r\n    struct UserInfo {\r\n        bytes32 name;\r\n        bytes32 location;\r\n        address ethAddress;\r\n        roles role;\r\n    }\r\n\r\n    /// @notice\r\n    mapping(address => UserInfo) UsersDetails;\r\n    /// @notice\r\n    address[] users;\r\n\r\n    /// @notice\r\n    /// @dev Get User Information/ Profile\r\n    /// @param User User Ethereum Network Address\r\n    /// @return User Details\r\n    function getUserInfo(address User) public view returns(\r\n        bytes32 name,\r\n        bytes32 location,\r\n        address ethAddress,\r\n        roles role\r\n        ) {\r\n        return (\r\n            UsersDetails[User].name,\r\n            UsersDetails[User].location,\r\n            UsersDetails[User].ethAddress,\r\n            UsersDetails[User].role);\r\n    }\r\n\r\n    /// @notice\r\n    /// @dev Get Number of registered Users\r\n    /// @return Number of registered Users\r\n    function getUsersCount() public view returns(uint count){\r\n        return users.length;\r\n    }\r\n\r\n    /// @notice\r\n    /// @dev Get User by Index value of stored data\r\n    /// @param index Indexed Number\r\n    /// @return User Details\r\n    function getUserbyIndex(uint index) public view returns(\r\n        bytes32 name,\r\n        bytes32 location,\r\n        address ethAddress,\r\n        roles role\r\n        ) {\r\n        return getUserInfo(users[index]);\r\n    }\r\n/********************************************** Supplier Section ******************************************/\r\n    /// @notice\r\n    mapping(address => address[]) supplierRawProductInfo;\r\n    event RawSupplyInit(\r\n        address indexed ProductID,\r\n        address indexed Supplier,\r\n        address Shipper,\r\n        address indexed Receiver\r\n    );\r\n\r\n    /// @notice\r\n    /// @dev Create new raw package by Supplier\r\n    /// @param Des Transporter Ethereum Network Address\r\n    /// @param Rcvr Manufacturer Ethereum Network Address\r\n    function createRawPackage(\r\n        bytes32 Des,\r\n        bytes32 FN,\r\n        bytes32 Loc,\r\n        uint Quant,\r\n        address Shpr,\r\n        address Rcvr\r\n        ) public {\r\n        require(\r\n            UsersDetails[msg.sender].role == roles.supplier,\r\n            \"Only Supplier Can call this function \"\r\n        );\r\n        RawMatrials rawData = new RawMatrials(\r\n            msg.sender,\r\n            Des,\r\n            FN,\r\n            Loc,\r\n            Quant,\r\n            Shpr,\r\n            Rcvr\r\n            );\r\n        supplierRawProductInfo[msg.sender].push(address(rawData));\r\n        emit RawSupplyInit(address(rawData), msg.sender, Shpr, Rcvr);\r\n    }\r\n\r\n    /// @notice\r\n    /// @dev  Get Count of created package by supplier(caller)\r\n    /// @return Number of packages\r\n    function getPackagesCountS() public view returns (uint count){\r\n        require(\r\n            UsersDetails[msg.sender].role == roles.supplier,\r\n            \"Only Supplier Can call this function \"\r\n        );\r\n        return supplierRawProductInfo[msg.sender].length;\r\n    }\r\n\r\n    /// @notice\r\n    /// @dev Get PackageID by Indexed value of stored data\r\n    /// @param index Indexed Value\r\n    /// @return PackageID\r\n    function getPackageIdByIndexS(uint index) public view returns(address packageID) {\r\n        require(\r\n            UsersDetails[msg.sender].role == roles.supplier,\r\n            \"Only Supplier Can call this function \"\r\n        );\r\n        return supplierRawProductInfo[msg.sender][index];\r\n    }\r\n\r\n/********************************************** Transporter Section ******************************************/\r\n\r\n    /// @notice\r\n    /// @dev Load Consingment fot transport one location to another.\r\n    /// @param pid PackageID or MadicineID\r\n    /// @param transportertype Transporter Type on the basic of tx between Roles\r\n    /// @param cid Sub Contract ID for Consingment transaction\r\n    function loadConsingment(\r\n        address pid, //Package or Batch ID\r\n        uint transportertype,\r\n        address cid\r\n        ) public {\r\n        require(\r\n            UsersDetails[msg.sender].role == roles.transporter,\r\n            \"Only Transporter can call this function\"\r\n        );\r\n        require(\r\n            transportertype > 0,\r\n            \"Transporter Type must be define\"\r\n        );\r\n\r\n        if(transportertype == 1) {  // Supplier to Manufacturer\r\n            RawMatrials(pid).pickPackage(msg.sender);\r\n        } else if(transportertype == 2) {   // Manufacturer to Wholesaler OR Manufacturer to Distributer\r\n            Madicine(pid).pickPackage(msg.sender);\r\n        } else if(transportertype == 3) {   // Wholesaler to Distributer\r\n            MadicineW_D(cid).pickWD(pid,msg.sender);\r\n        } else if(transportertype == 4) {   // Distrubuter to Pharma\r\n            MadicineD_P(cid).pickDP(pid,msg.sender);\r\n        }\r\n    }\r\n\r\n/********************************************** Manufacturer Section ******************************************/\r\n    /// @notice\r\n    mapping(address => address[]) RawPackagesAtManufacturer;\r\n\r\n    /// @notice\r\n    /// @dev Update Package / Madicine batch recieved status by ethier Manufacturer or Distributer\r\n    /// @param pid  PackageID or MadicineID\r\n    function  rawPackageReceived(\r\n        address pid\r\n    ) public {\r\n        require(\r\n            UsersDetails[msg.sender].role == roles.manufacturer,\r\n            \"Only manufacturer can call this function\"\r\n        );\r\n\r\n        RawMatrials(pid).receivedPackage(msg.sender);\r\n        RawPackagesAtManufacturer[msg.sender].push(pid);\r\n    }\r\n\r\n    /// @notice\r\n    /// @dev Get Package Count at Manufacturer\r\n    /// @return Number of Packages at Manufacturer\r\n    function getPackagesCountM() public view returns(uint count){\r\n        require(\r\n            UsersDetails[msg.sender].role == roles.manufacturer,\r\n            \"Only manufacturer can call this function\"\r\n        );\r\n        return RawPackagesAtManufacturer[msg.sender].length;\r\n    }\r\n\r\n    /// @notice\r\n    /// @dev Get PackageID by Indexed value of stored data\r\n    /// @param index Indexed Value\r\n    /// @return PackageID\r\n    function getPackageIDByIndexM(uint index) public view returns(address BatchID){\r\n        require(\r\n            UsersDetails[msg.sender].role == roles.manufacturer,\r\n            \"Only manufacturer can call this function\"\r\n        );\r\n        return RawPackagesAtManufacturer[msg.sender][index];\r\n    }\r\n\r\n    /// @notice\r\n    mapping(address => address[]) ManufactureredMadicineBatches;\r\n    event MadicineNewBatch(\r\n        address indexed BatchId,\r\n        address indexed Manufacturer,\r\n        address shipper,\r\n        address indexed Receiver\r\n    );\r\n\r\n    /// @notice\r\n    /// @dev Create Madicine Batch\r\n    /// @param Des Description of madicine batch\r\n    /// @param RM RawMatrials Information\r\n    /// @param Quant Number of Units\r\n    /// @param Shpr Transporter Ethereum Network Address\r\n    /// @param Rcvr Receiver Ethereum Network Address\r\n    /// @param RcvrType Receiver Type Ethier Wholesaler(1) or Distributer(2)\r\n    function manufacturMadicine(\r\n        bytes32 Des,\r\n        bytes32 RM,\r\n        uint Quant,\r\n        address Shpr,\r\n        address Rcvr,\r\n        uint RcvrType\r\n    ) public {\r\n        require(\r\n            UsersDetails[msg.sender].role == roles.manufacturer,\r\n            \"Only manufacturer can call this function\"\r\n        );\r\n        require(\r\n            RcvrType != 0,\r\n            \"Receiver Type must be define\"\r\n        );\r\n\r\n        Madicine m = new Madicine(\r\n            msg.sender,\r\n            Des,\r\n            RM,\r\n            Quant,\r\n            Shpr,\r\n            Rcvr,\r\n            RcvrType\r\n        );\r\n\r\n        ManufactureredMadicineBatches[msg.sender].push(address(m));\r\n        emit MadicineNewBatch(address(m), msg.sender, Shpr, Rcvr);\r\n    }\r\n\r\n    /// @notice\r\n    /// @dev Get Madicine Batch Count\r\n    /// @return Number of Batches\r\n    function getBatchesCountM() public view returns (uint count){\r\n        require(\r\n            UsersDetails[msg.sender].role == roles.manufacturer,\r\n            \"Only Manufacturer Can call this function.\"\r\n        );\r\n        return ManufactureredMadicineBatches[msg.sender].length;\r\n    }\r\n\r\n    /// @notice\r\n    /// @dev Get Madicine BatchID by indexed value of stored data\r\n    /// @param index Indexed Number\r\n    /// @return Madicine BatchID\r\n    function getBatchIdByIndexM(uint index) public view returns(address packageID) {\r\n        require(\r\n            UsersDetails[msg.sender].role == roles.manufacturer,\r\n            \"Only Manufacturer Can call this function.\"\r\n        );\r\n        return ManufactureredMadicineBatches[msg.sender][index];\r\n    }\r\n\r\n\r\n/********************************************** Wholesaler Section ******************************************/\r\n    /// @notice\r\n    mapping(address => address[]) MadicineBatchesAtWholesaler;\r\n\r\n    /// @notice\r\n    /// @dev Madicine Batch Received\r\n    /// @param batchid Madicine BatchID\r\n    /// @param cid Sub Contract ID for Madicine (if transaction Wholesaler to Distributer)\r\n    function madicineReceived(\r\n        address batchid,\r\n        address cid\r\n    ) public {\r\n        require(\r\n            UsersDetails[msg.sender].role == roles.wholesaler || UsersDetails[msg.sender].role == roles.distributer,\r\n            \"Only Wholesaler and Distributer can call this function\"\r\n        );\r\n\r\n        uint rtype = Madicine(batchid).receivedPackage(msg.sender);\r\n        if(rtype == 1){\r\n            MadicineBatchesAtWholesaler[msg.sender].push(batchid);\r\n        }else if( rtype == 2){\r\n            MadicineBatchesAtWholesaler[msg.sender].push(batchid);\r\n            if(Madicine(batchid).getWDP()[0] != address(0)){\r\n                MadicineW_D(cid).recieveWD(batchid,msg.sender);\r\n            }\r\n        }\r\n    }\r\n\r\n    /// @notice\r\n    mapping(address => address[]) MadicineWtoD;\r\n    /// @notice\r\n    mapping(address => address) MadicineWtoDTxContract;\r\n\r\n    /// @notice\r\n    /// @dev Sub Contract for Madicine Transfer from Wholesaler to Distributer\r\n    /// @param BatchID Madicine BatchID\r\n    /// @param Shipper Transporter Ethereum Network Address\r\n    /// @param Receiver Distributer Ethereum Network Address\r\n    function transferMadicineWtoD(\r\n        address BatchID,\r\n        address Shipper,\r\n        address Receiver\r\n    ) public {\r\n        require(\r\n            UsersDetails[msg.sender].role == roles.wholesaler &&\r\n            msg.sender == Madicine(BatchID).getWDP()[0],\r\n            \"Only Wholesaler or current owner of package can call this function\"\r\n        );\r\n        MadicineW_D wd = new MadicineW_D(\r\n            BatchID,\r\n            msg.sender,\r\n            Shipper,\r\n            Receiver\r\n        );\r\n        MadicineWtoD[msg.sender].push(address(wd));\r\n        MadicineWtoDTxContract[BatchID] = address(wd);\r\n    }\r\n\r\n    /// @notice\r\n    /// @dev Get Madicine Batch Count\r\n    /// @return Number of Batches\r\n    function getBatchesCountWD() public view returns (uint count){\r\n        require(\r\n            UsersDetails[msg.sender].role == roles.wholesaler,\r\n            \"Only Wholesaler Can call this function.\"\r\n        );\r\n        return MadicineWtoD[msg.sender].length;\r\n    }\r\n\r\n    /// @notice\r\n    /// @dev Get Madicine BatchID by indexed value of stored data\r\n    /// @param index Indexed Number\r\n    /// @return Madicine BatchID\r\n    function getBatchIdByIndexWD(uint index) public view returns(address packageID) {\r\n        require(\r\n            UsersDetails[msg.sender].role == roles.wholesaler,\r\n            \"Only Wholesaler Can call this function.\"\r\n        );\r\n        return MadicineWtoD[msg.sender][index];\r\n    }\r\n\r\n    /// @notice\r\n    /// @dev Get Sub Contract ID of Madicine Batch Transfer in between Wholesaler to Distributer\r\n    /// @param BatchID Madicine BatchID\r\n    /// @return SubContract ID\r\n    function getSubContractWD(address BatchID) public view returns (address SubContractWD) {\r\n        // require(\r\n        //     UsersDetails[msg.sender].role == roles.wholesaler,\r\n        //     \"Only Wholesaler Can call this function.\"\r\n        // );\r\n        return MadicineWtoDTxContract[BatchID];\r\n    }\r\n\r\n/********************************************** Distributer Section ******************************************/\r\n    /// @notice\r\n    mapping(address => address[]) MadicineBatchAtDistributer;\r\n\r\n    /// @notice\r\n    mapping(address => address[]) MadicineDtoP;\r\n\r\n    /// @notice\r\n    mapping(address => address) MadicineDtoPTxContract;\r\n\r\n    /// @notice\r\n    /// @dev Transfer Madicine BatchID in between Distributer to Pharma\r\n    /// @param BatchID Madicine BatchID\r\n    /// @param Shipper Transporter Ethereum Network Address\r\n    /// @param Receiver Pharma Ethereum Network Address\r\n    function transferMadicineDtoP(\r\n        address BatchID,\r\n        address Shipper,\r\n        address Receiver\r\n    ) public {\r\n        require(\r\n            UsersDetails[msg.sender].role == roles.distributer &&\r\n            msg.sender == Madicine(BatchID).getWDP()[1],\r\n            \"Only Distributer or current owner of package can call this function\"\r\n        );\r\n        MadicineD_P dp = new MadicineD_P(\r\n            BatchID,\r\n            msg.sender,\r\n            Shipper,\r\n            Receiver\r\n        );\r\n        MadicineDtoP[msg.sender].push(address(dp));\r\n        MadicineDtoPTxContract[BatchID] = address(dp);\r\n    }\r\n\r\n    /// @notice\r\n    /// @dev Get Madicine BatchID Count\r\n    /// @return Number of Batches\r\n    function getBatchesCountDP() public view returns (uint count){\r\n        require(\r\n            UsersDetails[msg.sender].role == roles.distributer,\r\n            \"Only Distributer Can call this function.\"\r\n        );\r\n        return MadicineDtoP[msg.sender].length;\r\n    }\r\n\r\n    /// @notice\r\n    /// @dev Get Madicine BatchID by indexed value of stored data\r\n    /// @param index Index Number\r\n    /// @return Madicine BatchID\r\n    function getBatchIdByIndexDP(uint index) public view returns(address packageID) {\r\n        require(\r\n            UsersDetails[msg.sender].role == roles.distributer,\r\n            \"Only Distributer Can call this function.\"\r\n        );\r\n        return MadicineDtoP[msg.sender][index];\r\n    }\r\n\r\n    /// @notice\r\n    /// @dev Get SubContract ID of Madicine Batch Transfer in between Distributer to Pharma\r\n    /// @param BatchID Madicine BatchID\r\n    /// @return SubContract ID\r\n    function getSubContractDP(address BatchID) public view returns (address SubContractDP) {\r\n        // require(\r\n        //     UsersDetails[msg.sender].role == roles.distributer,\r\n        //     \"Only Distributer Can call this function.\"\r\n        // );\r\n        return MadicineDtoPTxContract[BatchID];\r\n    }\r\n\r\n/********************************************** Pharma Section ******************************************/\r\n    /// @notice\r\n    mapping(address => address[]) MadicineBatchAtPharma;\r\n\r\n    /// @notice\r\n    /// @dev Madicine Batch Recieved\r\n    /// @param batchid Madicine BatchID\r\n    /// @param cid SubContract ID\r\n    function madicineRecievedAtPharma(\r\n        address batchid,\r\n        address cid\r\n    ) public {\r\n        require(\r\n            UsersDetails[msg.sender].role == roles.pharma,\r\n            \"Only Pharma Can call this function.\"\r\n        );\r\n        MadicineD_P(cid).recieveDP(batchid, msg.sender);\r\n        MadicineBatchAtPharma[msg.sender].push(batchid);\r\n        sale[batchid] = salestatus(1);\r\n    }\r\n\r\n    enum salestatus {\r\n        notfound,\r\n        atpharma,\r\n        sold,\r\n        expire,\r\n        damaged\r\n    }\r\n\r\n    /// @notice\r\n    mapping(address => salestatus) sale;\r\n\r\n    event MadicineStatus(\r\n        address BatchID,\r\n        address indexed Pharma,\r\n        uint status\r\n    );\r\n\r\n    /// @notice\r\n    /// @dev Update Madicine Batch status\r\n    /// @param BatchID Madicine BatchID\r\n    /// @param Status Madicine Batch Status ( sold, expire etc.)\r\n    function updateSaleStatus(\r\n        address BatchID,\r\n        uint Status\r\n    ) public {\r\n        require(\r\n            UsersDetails[msg.sender].role == roles.pharma &&\r\n            msg.sender == Madicine(BatchID).getWDP()[2],\r\n            \"Only Pharma or current owner of package can call this function\"\r\n        );\r\n        require(sale[BatchID] == salestatus(1), \"madicine Must be at Pharma\");\r\n        sale[BatchID] = salestatus(Status);\r\n\r\n        emit MadicineStatus(BatchID, msg.sender, Status);\r\n    }\r\n\r\n    /// @notice\r\n    /// @dev Get Madicine Batch status\r\n    /// @param BatchID Madicine BatchID\r\n    /// @return Status\r\n    function salesInfo(\r\n        address BatchID\r\n    ) public\r\n    view\r\n    returns(\r\n        uint Status\r\n    ){\r\n        return uint(sale[BatchID]);\r\n    }\r\n\r\n    /// @notice\r\n    /// @dev Get Madicine Batch count\r\n    /// @return Number of Batches\r\n    function getBatchesCountP() public view returns(uint count){\r\n        require(\r\n            UsersDetails[msg.sender].role == roles.pharma,\r\n            \"Only Wholesaler or current owner of package can call this function\"\r\n        );\r\n        return  MadicineBatchAtPharma[msg.sender].length;\r\n    }\r\n\r\n    /// @notice\r\n    /// @dev Get Madicine BatchID by indexed value of stored data\r\n    /// @param index Index Number\r\n    /// @return Madicine BatchID\r\n    function getBatchIdByIndexP(uint index) public view returns(address BatchID){\r\n        require(\r\n            UsersDetails[msg.sender].role == roles.pharma,\r\n            \"Only Wholesaler or current owner of package can call this function\"\r\n        );\r\n        return MadicineBatchAtPharma[msg.sender][index];\r\n    }\r\n}\r\n",
  "sourcePath": "C:/Users/Dell/Documents/GitHub/Blockchain_SupplyChain/contracts/SupplyChain.sol",
  "compiler": {
    "name": "solc",
    "version": "0.5.1+commit.c8a2cb62.Emscripten.clang"
  },
  "schemaVersion": "3.3.3",
  "updatedAt": "2021-01-26T12:47:50.880Z",
  "networkType": "ethereum",
  "devdoc": {
    "author": "Robby Malunga",
    "methods": {
      "constructor": {
        "details": "Initiate SupplyChain Contract"
      },
      "createRawPackage(bytes32,bytes32,bytes32,uint256,address,address)": {
        "params": {
          "Rcvr": "Manufacturer Ethereum Network Address"
        }
      },
      "getBatchIdByIndexDP(uint256)": {
        "return": "Madicine BatchID"
      },
      "getBatchIdByIndexM(uint256)": {
        "return": "Madicine BatchID"
      },
      "getBatchIdByIndexP(uint256)": {
        "return": "Madicine BatchID"
      },
      "getBatchIdByIndexWD(uint256)": {
        "return": "Madicine BatchID"
      },
      "getBatchesCountDP()": {
        "return": "Number of Batches"
      },
      "getBatchesCountM()": {
        "return": "Number of Batches"
      },
      "getBatchesCountP()": {
        "return": "Number of Batches"
      },
      "getBatchesCountWD()": {
        "return": "Number of Batches"
      },
      "getPackageIDByIndexM(uint256)": {
        "return": "PackageID"
      },
      "getPackageIdByIndexS(uint256)": {
        "return": "PackageID"
      },
      "getPackagesCountM()": {
        "return": "Number of Packages at Manufacturer"
      },
      "getPackagesCountS()": {
        "return": "Number of packages"
      },
      "getSubContractDP(address)": {
        "return": "SubContract ID"
      },
      "getSubContractWD(address)": {
        "return": "SubContract ID"
      },
      "getUserInfo(address)": {
        "return": "User Details"
      },
      "getUserbyIndex(uint256)": {
        "return": "User Details"
      },
      "getUsersCount()": {
        "return": "Number of registered Users"
      },
      "loadConsingment(address,uint256,address)": {
        "params": {
          "cid": "Sub Contract ID for Consingment transaction"
        }
      },
      "madicineReceived(address,address)": {
        "params": {
          "cid": "Sub Contract ID for Madicine (if transaction Wholesaler to Distributer)"
        }
      },
      "madicineRecievedAtPharma(address,address)": {
        "params": {
          "cid": "SubContract ID"
        }
      },
      "manufacturMadicine(bytes32,bytes32,uint256,address,address,uint256)": {
        "params": {
          "RcvrType": "Receiver Type Ethier Wholesaler(1) or Distributer(2)"
        }
      },
      "rawPackageReceived(address)": {
        "params": {
          "pid": "PackageID or MadicineID"
        }
      },
      "reassigneRole(address,uint256)": {
        "params": {
          "Role": "Role to assigne"
        }
      },
      "registerUser(address,bytes32,bytes32,uint256)": {
        "params": {
          "Role": "User Role"
        }
      },
      "revokeRole(address)": {
        "params": {
          "userAddress": "User Ethereum Network Address"
        }
      },
      "salesInfo(address)": {
        "return": "Status"
      },
      "transferMadicineDtoP(address,address,address)": {
        "params": {
          "Receiver": "Pharma Ethereum Network Address"
        }
      },
      "transferMadicineWtoD(address,address,address)": {
        "params": {
          "Receiver": "Distributer Ethereum Network Address"
        }
      },
      "updateSaleStatus(address,uint256)": {
        "params": {
          "Status": "Madicine Batch Status ( sold, expire etc.)"
        }
      }
    }
  },
  "userdoc": {
    "methods": {}
  }
}